:100000000C9434000C9451000C9451000C94510049
:100010000C9451000C9440050C9451000C94510028
:100020000C9451000C9451000C9451000C9451000C
:100030000C9451000C940B050C9451000C9451003D
:100040000C942A040C9451000C943E010C949C00D6
:100050000C948C000C9433050C9451000C945100BA
:100060000C9451000C94510011241FBECFEFD8E026
:10007000DEBFCDBF12E0A0E0B1E0E8E7F7E102C0EB
:1000800005900D92A634B107D9F726E0A6E4B2E0B8
:1000900001C01D92A43EB207E1F70E94B8070C947C
:1000A000BA0B0C9400008FE980937A0080E480936F
:1000B0007C0008952C9A08952C98089585B190E1BC
:1000C000892785B908951092C00088ED8093C100FA
:1000D00086E08093C2001092C50087E68093C4003A
:1000E000109247021092460208951092C00010929A
:1000F000C1001092C2001092C5001092C40081E0AD
:1001000090E090934C0480934B0485E090E09093B2
:1001100047028093460208958F938FB78F93EF9392
:10012000FF93E0ECF0E0808180648083FF91EF91A9
:100130008F918FBF8F9118958F938FB78F93EF9378
:10014000FF93E0ECF0E0808180628083FF91EF918B
:100150008F918FBF8F9118959091C00095FFFCCF24
:100160008093C60008950F931F93CF93DF938C0164
:10017000EC0109900020E9F72197C81BD0E0CD17CA
:100180002CF4DF91CF911F910F910895F801ED0F9D
:10019000F11DD7FDFA9580810E94AC00DF5FEFCFA3
:1001A0000F931F93CF93DF93CDB7DEB764970FB64E
:1001B000F894DEBF0FBECDBF1F926F939F938F93B6
:1001C00084E391E09F938F938E010F5F1F4F1F93E6
:1001D0000F930E94D308C8010E94B3000FB6F89491
:1001E000DEBF0FBECDBF64960FB6F894DEBF0FBE64
:1001F000CDBFDF91CF911F910F9108950F931F9362
:10020000CF93C0E00BE412E0C83021F4CF911F91EE
:100210000F910895C8010E94B30080E20E94AC00D3
:10022000CF5F005C1F4FF0CF8D3049F481E08093A9
:1002300048028DE00E94AC008AE00C94AC00803251
:1002400041F410924A02809149028F5F80934902E3
:100250000895E091490290914A0220E4E202F001FF
:100260001124E55BFD4FE90FF11D97FDFA958083A1
:1002700080914A028F5F80934A0208951F920F92E5
:100280000FB60F9211241F932F933F934F935F93B9
:100290006F937F938F939F93AF93BF93CF93DF938E
:1002A000EF93FF93C6ECD0E01881812F0E941401D8
:1002B0001883E0ECF0E0808180688083FF91EF910B
:1002C000DF91CF91BF91AF919F918F917F916F916E
:1002D0005F914F913F912F911F910F900FBE0F9003
:1002E0001F90189580FF0BC05C9A81FF0AC05D9A31
:1002F00082FF09C05E9A83FF08C05F9A08955C98E8
:10030000F4CF5D98F5CF5E98F6CF5F980895CF93C0
:10031000C82F299A82958F700E9472012998299A74
:100320008C2F0E947201299887EC90E00197F1F7D9
:1003300000C00000CF91089528980C948701289A56
:100340000C948701CF93DF93EC018991811103C055
:10035000DF91CF9108950E949F01F7CF6295660FBC
:10036000660F607C860F80680C949C0181E00E947F
:100370009C018FE39FE10197F1F700C00000089511
:1003800082E00E949C018FE39FE10197F1F700C09A
:1003900000000895CF93549A559A569A579A219AE5
:1003A000209A8FE59AEE0197F1F700C00000289897
:1003B0002998C3E0299A83E00E94720129988FE16D
:1003C0009EE40197F1F700C00000C15099F7299A07
:1003D00082E00E94720129988FE99FE00197F1F76E
:1003E00000C0000088E20E949C0188E00E949C01FD
:1003F00081E00E949C018FE39FE10197F1F700C02B
:10040000000086E00E949C018CE0CF910C949C013E
:100410000F931F93CF93DF938C01862F880F880F44
:10042000880F805C0E949C01E801085F1F4F899142
:100430000E949F01C017D107D1F780E8DF91CF91CB
:100440001F910F910C949C010C949F01AC01209181
:100450006104309162046203C001639F900D112416
:100460008417950730F4280F391F81E024173507CA
:1004700008F480E008950F931F93CF93DF938C01CE
:10048000D0E0CD2F6D2FC8010E942602811108C037
:10049000DF5FD431B1F7C1E0012B09F4C0E0C195B1
:1004A0008C2FDF91CF911F910F9108950F931F9380
:1004B000CF93DF93CDB7DEB76E970FB6F894DEBF5C
:1004C0000FBECDBF0E943B029FE0EEE3F1E0DE01F4
:1004D000509601900D929A95E1F79FE0E0E5F1E0EA
:1004E0009E012F5F3F4FD90101900D929A95E1F740
:1004F00081508901682F082E000C770B8F3FB9F0CF
:10050000DB0195E0AA0FBB1F9A95E1F7AC59BB4FF1
:10051000CE014096AE01425E5F4F2D91211101C088
:1005200020E2FC012193CF01E417F507B1F7FB01AD
:1005300085E0EE0FFF1F8A95E1F7EC57FB4FD801DE
:100540009E01215F3F4F8191811101C080E28D9317
:10055000A217B307C1F760E080E00E94AE018EE70A
:100560000E949F01CE0140960E94A20161E081E0BD
:100570000E94AE01C8010E94A2016E960FB6F894C7
:10058000DEBF0FBECDBFDF91CF911F910F910895B8
:10059000CF93DF9361E081E00E94AE01D0E0C0E044
:1005A000FE01E15BFB4F80818F3F59F08DE491E0CC
:1005B0000E94A2012296C031D10591F7DF91CF911F
:1005C00008958DE591E0F4CFCF93DF93CDB7DEB7FB
:1005D00028970FB6F894DEBF0FBECDBF88E0E0E1EC
:1005E000F1E0DE01119601900D928A95E1F790E01D
:1005F00080E0FC01E15BFB4F3081282F2595E1E095
:10060000F0E0EC0FFD1FE20FF11D27FDFA952081B0
:1006100032130EC002968031910559F781E0289679
:100620000FB6F894DEBF0FBECDBFDF91CF91089516
:1006300080E0F5CF1F93CF93DF93CDB7DEB76E97F2
:100640000FB6F894DEBF0FBECDBF182F60E080E07C
:100650000E94AE018FE0EFE4F1E0DE0150960190E0
:100660000D928A95E1F78FE0EFE4F1E0DE0111965B
:1006700001900D928A95E1F78FEF810F111110C053
:1006800083E090E090934C0480934B046E960FB6F9
:10069000F894DEBF0FBECDBFDF91CF911F910895BB
:1006A00020E28202C0011124FC01EC58FB4F2EE035
:1006B000DE01509601900D922A95E1F7FC01EE576C
:1006C000FB4F8EE0DE01119601900D928A95E1F7C5
:1006D000CE0140960E94A201CE0101960E94A20185
:1006E000D5CF20914B0430914C042115310511F4E4
:1006F0000C94C8022130310541F40E9456028091C9
:100700007A00806480937A0008952230310521F4C4
:100710000E943B020C941A032330310591F480911E
:10072000460290914702059721F40E94B6010E946B
:10073000630060E080E00E94AE018FE591E00C94E0
:10074000A2010895AF92BF92CF92DF92EF92FF92F3
:100750000F931F93CF93DF9300D000D000D0CDB77D
:10076000DEB71A821982FE01339684E0DF011D9202
:100770008A95E9F784E6E82E84E0F82E10E000E0A0
:1007800090E7C92E91E0D92E32975F01D7018C9165
:100790008823C1F01F930F93DF92CF92BF92AF9245
:1007A0000E94D308C5010E94B300C7010E94B30094
:1007B00084E392E00E94B3000F900F900F900F908F
:1007C0000F900F900F5F1F4FB0E2EB0EF11C043142
:1007D0001105E1F684E392E00E94B30026960FB67D
:1007E000F894DEBF0FBECDBFDF91CF911F910F9167
:1007F000FF90EF90DF90CF90BF90AF9008957894E6
:1008000014BC82E085BD91E090936E001092800050
:100810008093810090936F0023EC2093B00090931D
:10082000B1008093B30084E0809368008FE08093F0
:100830006D0080E0282F082E000C330B9FEF8031D5
:1008400009F40895F901E15BFB4F90838F5F2F5FFF
:100850003F4FF5CF1F920F920FB60F9211242F9397
:100860003F934F935F936F937F938F939F93AF9338
:10087000BF93EF93FF9380914802882309F454C0FB
:1008800080914602909147028130910509F47EC023
:100890008330910509F4A4C0892B09F0B9C0809177
:1008A0004B0281110DC087E791E00E94B3008AE8F6
:1008B00091E00E94B30087E991E00E94B3000FC06D
:1008C00080914B02813309F040C082EA91E00E949E
:1008D000B30081E090E0909347028093460290E05D
:1008E00080E030E020E0AC0166E0440F551F6A95DF
:1008F000E1F7455B5D4FFA01E20FF31F10822F5FB6
:100900003F4F20343105B9F701968830910549F7FA
:1009100010924A02109249028DE00E94AC008AE0D7
:100920000E94AC0010924802FF91EF91BF91AF91ED
:100930009F918F917F916F915F914F913F912F91F7
:100940000F900FBE0F901F90189580914B0282332D
:1009500049F40E94A20387ED91E00E94B30083E076
:1009600090E0B9CF80914B02833309F0B8CF88EF84
:1009700091E00E94B30082E092E00E94B30088EF11
:1009800091E00E94B3000E947500A9CF80914B02B4
:10099000882321F08091490218166CF087E791E0D6
:1009A0000E94B3008AE891E00E94B30087E991E0D9
:1009B0000E94B30010C080914902813079F76BE842
:1009C00072E08BE492E00E9469068CE092E00E9463
:1009D000B3000E943C0710924702109246027FCF5C
:1009E00080914B028823D1F2809149028111D6CFA8
:1009F00080914A02823044F080914C0286520E94DB
:100A0000960783E292E0D4CF80914B028053F7CFD8
:100A100087E392E052CF1F920F920FB60F921124EC
:100A20002F933F934F935F936F937F938F939F93F6
:100A3000AF93BF93EF93FF9380915F049091600415
:100A40000E947103FF91EF91BF91AF919F918F91A0
:100A50007F916F915F914F913F912F910F900FBEBA
:100A60000F901F9018958F939F938091780090918D
:100A700079009093600480935F049F918F91189503
:100A80000F920FB60F921F9211242F933F938F93C3
:100A90009F93EF93FF93CF93DF9300D0CDB7DEB753
:100AA000809168008B7F8093680090918500809191
:100AB00084009A83898329813A8180914D049091A1
:100AC0004E042817390761F080915E048F3F51F181
:100AD00080E0282F082E000C330B9FEF8031D1F4DB
:100AE00089819A8190934E0480934D04809168008F
:100AF0008460809368000F900F90DF91CF91FF91F9
:100B0000EF919F918F913F912F911F900F900FBE6A
:100B10000F901895F901E15BFB4F90838F5F2F5F7A
:100B20003F4FDCCF8FE090E0FC01E15BFB4F208189
:100B3000FC01E05BFB4F20830197B0F7489903C0AD
:100B400010924F04CDCF499904C081E080934F04A7
:100B5000C7CF4A9902C082E0F9CF4B99C1CF83E059
:100B6000F5CFCF93DF93D0E0C0E0F999FECF60E0FE
:100B7000CE010E94750B2196CF3FD105B1F7DF91D1
:100B8000CF9108950F931F93CF93DF93EC0190E0E3
:100B900080E00E946D0B811120C090E080E017C0C2
:100BA000F999FECFCE010E946D0B8E010F5F1F4F92
:100BB000863B91F4C8010E946D0B823A69F4C8012A
:100BC00001960E946D0B803D39F4CE010396DF91B2
:100BD000CF911F910F910895E801CF3FD10500F308
:100BE0008FEF90E0F4CF0F931F93CF93DF93EC013F
:100BF00090E080E00E946D0B811120C090E080E0C9
:100C000017C0F999FECFCE010E946D0B8E010F5FC8
:100C10001F4F8A3A91F4C8010E946D0B8E3F69F410
:100C2000C80101960E946D0B883B39F4CE010396F2
:100C3000DF91CF911F910F910895E801CF3FD1052A
:100C400000F38FEF90E0F4CFCF93DF9390E080E05C
:100C50000E94C205D82FC92F0E946D0B811105C0BB
:100C60008D2F9C2FDF91CF910895F999FECF8D2F75
:100C70009C2FEECFCF92DF92EF92FF920F931F93B4
:100C8000CF93DF93EC01FC0101900020E9F731974D
:100C90001E2F181B0E9424060C2F6C01EC2EFD2E1B
:100CA0008E2D801B81174CF0DF91CF911F910F91FA
:100CB000FF90EF90DF90CF900895F999FECFF70164
:100CC00061917F01C6010E94750BFFEFCF1ADF0A09
:100CD000E7CF0F931F93CF93DF93CDB7DEB7E597A1
:100CE0000FB6F894DEBF0FBECDBF8B011A821982FA
:100CF000FE0133962BE2DF011D922A95E9F7409120
:100D00003E0250913F0260914002709141024AAB15
:100D10005BAB6CAB7DAB4091420250914302609162
:100D20004402709145024EA75FA768AB79ABBC0146
:100D3000CE0101960E94CC08BE016E5C7F4FCE01B1
:100D400001960E94C108B801CE0101960E94C10817
:100D5000BE01625D7F4FCE0101960E94C108CE01A7
:100D600001960E943A06E5960FB6F894DEBF0FBED4
:100D7000CDBFDF91CF911F910F910895AF92BF9298
:100D8000DF92EF92FF920F931F93CF93DF93182F71
:100D90005B0100E0D0E0C0E0CE01011794F00E94BA
:100DA000F3059C01245031098F3F910509F5DF912E
:100DB000CF911F910F91FF90EF90DF90BF90AF9078
:100DC00008950E94C205EC010F5FE6CFCE01800FAF
:100DD000911F0E946D0BF501E00FF11F8083D394EA
:100DE0000D2D0D2C000C110BE016F1067CF7DFCF5A
:100DF000D12C7901EC1AFD0AF3CFAF92BF92DF92AA
:100E0000EF92FF920F931F93CF93DF93182F5B0105
:100E100000E0D0E0C0E0CE01101794F40E94C205BB
:100E20009C01245031098F3F910509F5DF91CF9145
:100E30001F910F91FF90EF90DF90BF90AF900895BA
:100E40000E94F305EC010F5FE6CFCE01800F911FEA
:100E50000E946D0BF501E00FF11F8083D3940D2DDF
:100E60000D2C000C110BE016F1067CF7DFCFD12C16
:100E70007901EC1AFD0AF3CFCF92DF92EF92FF9245
:100E80000F931F93CF93DF9304E614E094EEC92EE3
:100E900096E0D92EF80180E1DF01C82F1D92CA9596
:100EA000E9F7DF015096ED01982F19929A95E9F72D
:100EB000B096A6E0E43EFA0779F784E6E82E84E0EF
:100EC000F82ED0E08FB3C82FC27081FDFBCFB701E1
:100ED0008D2F0E94BE06B701605F7F4F8D2F0E944D
:100EE000FD06DF5FB0E2EB0EF11CD43159F7F801DB
:100EF00080818111CF5F005E1F4FC016D106B9F708
:100F0000CF5FC09363046C2F70E080E094E00E9498
:100F100099087093620460936104DF91CF911F91EF
:100F20000F91FF90EF90DF90CF9008950F931F9354
:100F3000CF93DF93182F00E0D0E0C0E0CE0101177F
:100F400064F00E94C2058C010C171D0758F4DF9154
:100F5000CF911F910F910C943C070E94C205EC01A8
:100F60000F5FECCF60E0CE010E94750B2196ECCFB5
:100F7000CF93DF93CDB7DEB7A0970FB6F894DEBF5F
:100F80000FBECDBF88E0E2E2F1E0DE0159960190AC
:100F90000D928A95E1F788E0EBE2F1E0DE015196EF
:100FA00001900D928A95E1F788E0E0E0F1E0DE0142
:100FB000199601900D928A95E1F788E0E8E0F1E05A
:100FC000DE01119601900D928A95E1F78CE384B9C8
:100FD0001AB885B90E9453000E94CA010E94FF03FB
:100FE0000E943C070E94B60160E0CE0149960E9433
:100FF000080261E0CE0141960E94080262E0CE0143
:1010000009960E94080263E0CE0101960E94080240
:1010100060E08FE00E94AE0180E00E94240261E067
:101020008FE00E94AE0181E00E94240260E080E037
:101030000E94AE0110924C0410924B0485E090E0A7
:10104000909347028093460280E0282F082E000CE0
:10105000330B9FEF803109F05CC060E081E00E94BB
:10106000AE0188E191E00E94A2010E94E40288237F
:10107000E1F380E0282F082E000C330B9FEF803126
:1010800009F04FC001E010E082E0E82EF12C2FEFD4
:1010900083EC99E0215080409040E1F700C00000CF
:1010A0000E94B60160E08FE00E94AE0182E00E94E3
:1010B000240210934C0400934B044899FECF489BA4
:1010C000FECF2FEF83EC99E0215080409040E1F774
:1010D00000C000000E94B60160E08FE00E94AE01F7
:1010E00082E00E942402F0924C04E0924B042FEF25
:1010F00081EE94E0215080409040E1F700C0000074
:101100004899FECF489BFECF8091C4008111FCCF4F
:10111000BECFF901E15BFB4F90838F5F2F5F3F4FA5
:1011200099CFF901E15BFB4F90838F5F2F5F3F4FBA
:10113000A6CF97FB072E16F4009407D077FD09D0B1
:101140000E94AD0807FC05D03EF4909581959F4F15
:101150000895709561957F4F0895AA1BBB1B51E1BF
:1011600007C0AA1FBB1FA617B70710F0A61BB70B17
:10117000881F991F5A95A9F780959095BC01CD01BC
:101180000895FB01DC010D900020E9F71197019013
:101190000D920020E1F70895FB01DC0101900D9212
:1011A0000020E1F70895AEE0B0E0E9EDF8E00C943E
:1011B000910B0D891E8986E08C831A8309838FEF3A
:1011C0009FE79E838D83AE01475E5F4F6F89788D69
:1011D000CE0101960E94F6082F813885020F131F59
:1011E000F80110822E96E4E00C94AD0BAFE0B0E075
:1011F000ECEFF8E00C94830B7C013B018A01DC01ED
:1012000017961C921E92169713968C9181FFBEC161
:101210009AE0292EFE0131964F01D70113969C9139
:10122000F30193FD859193FF81913F01882309F498
:1012300044C1853239F493FD859193FF81913F013B
:10124000853229F4B70190E00E94DF0AE6CFB12C85
:10125000412C512CBFE1B51538F08B3209F188F4DF
:10126000803201F1833221F157FC3AC020ED280F82
:101270002A3040F556FE1FC0B29C200D1124B22E1C
:1012800006C08D3291F0803379F7689450F8F301FD
:1012900093FD859193FF81913F018111DBCF20C0A8
:1012A000689451F8689452F8F2CF689453F8EFCFED
:1012B000689454F8ECCF429C200D1124422E68947F
:1012C00055F8E5CF8E3229F456FCF7C0689456F8ED
:1012D000DECF8C3619F4689457F8D9CF8836B9F236
:1012E000982F9F7D95549330C0F0833681F18337DA
:1012F000A1F1833509F05BC0D801CD90DD908D015F
:101300006B2D70E056FC02C06FEF7FEFC6010E94AC
:10131000C90A5C01689457F80AC00C5F1F4FEFE3DD
:10132000E983AA24A394B12C6401E89457F853FEEE
:1013300029C0342CA114B10451F5332009F46DCF28
:10134000B70180E290E00E94DF0A3A94F6CFD8011C
:101350008C9189830E5F1F4FE4CFF801C190D1902B
:101360008F016B2D70E056FC02C06FEF7FEFC6015E
:101370000E94D40A5C01D9CFB70180E290E00E94BC
:10138000DF0A4A944A141B0409F0B0F7D2CFF601E1
:1013900057FC859157FE81916F01B70190E00E9443
:1013A000DF0A31103A94B1E0AB1AB108C3CF8436EA
:1013B00019F0893609F071C0F80157FE67C06191D4
:1013C0007191819191918F01E52DEF76DE2E97FF3E
:1013D00009C090958095709561957F4F8F4F9F4F75
:1013E0006894D7F82AE030E0A4010E940F0BC82EC1
:1013F000C818AC2C5D2CD6FE0CC0E89450F8CB1469
:1014000040F4D4FE05C0D2FC03C05D2D5E7E552E97
:10141000AB2C54FE93C0FE01EC0DF11D8081803396
:1014200009F085C0652D697E562E752D7870372E92
:1014300053FC93C050FE8DC0BC2CA41410F4B40C0B
:10144000BA1854FE90C0B70180E390E00E94DF0A12
:1014500052FE07C088E751FC88E590E0B7010E9482
:10146000DF0ACB1408F48BC0CA94D12C8FEFC81AB2
:10147000D80AC80CD91CD6018E916D01B70190E035
:101480000E94DF0A8C149D04B1F757CF61917191CE
:10149000072E000C880B990B96CFD52CE894D4F826
:1014A0002AE0853729F1F52DF97FDF2E8037A1F06D
:1014B00058F48835A1F08F36D1F0F70186819781F5
:1014C0002F96E2E10C949F0B8837B9F7D4FE02C047
:1014D0006894D2F820E10CC06894D4F8F7CF54FE99
:1014E00003C02F2F2660D22E20E132E002C028E078
:1014F00030E0F801D7FE15C0419151916191719191
:101500004C875D876E877F878F01A4016C857D8501
:101510008E859F850E940F0BC82EC818E894D7F8B7
:1015200068CF81919191AC0170E060E0E9CF52FC0D
:1015300002C0A3947ACFA394A39477CF852D867805
:1015400009F473CFF6CFB70180E290E00E94DF0A82
:10155000A394A414C0F3312C74CF342C3A18A414DF
:1015600008F46FCFF8CF852D867809F47ACF8BE217
:1015700051FE80E257FC8DE2B70190E070CFB701D9
:1015800080E390E00E94DF0ABA946BCF8FEF9FEF69
:1015900097CFFC010590615070400110D8F78095FD
:1015A00090958E0F9F1F0895FC016150704001902F
:1015B0000110D8F7809590958E0F9F1F08950F9377
:1015C0001F93CF93DF93182F092FEB018B8181FDA0
:1015D00009C01FEF0FEF812F902FDF91CF911F9147
:1015E0000F91089582FF14C02E813F818C819D81CF
:1015F000281739073CF4E881F981CF0101969983D6
:10160000888310838E819F8101969F838E83E3CF91
:10161000E885F985812F0995892BA1F3DACFFA01A5
:10162000AA27283051F1203181F1E8946F936E7F21
:101630006E5F7F4F8F4F9F4FAF4FB1E03ED0B4E012
:101640003CD0670F781F891F9A1FA11D680F791F53
:101650008A1F911DA11D6A0F711D811D911DA11D64
:1016600020D009F468943F912AE0269F1124301974
:10167000305D3193DEF6CF010895462F4770405D0F
:101680004193B3E00FD0C9F7F6CF462F4F70405DBE
:101690004A3318F0495D31FD4052419302D0A9F719
:1016A000EACFB4E0A6959795879577956795BA9513
:1016B000C9F700976105710508959B01AC010A2ED9
:1016C00006945795479537952795BA95C9F7620FB0
:1016D000731F841F951FA01D0895F999FECF92BD19
:1016E00081BDF89A992780B50895262FF999FECFE4
:1016F0001FBA92BD81BD20BD0FB6F894FA9AF99A2F
:101700000FBE019608952F923F924F925F926F9273
:101710007F928F929F92AF92BF92CF92DF92EF9281
:10172000FF920F931F93CF93DF93CDB7DEB7CA1B02
:10173000DB0B0FB6F894DEBF0FBECDBF09942A882D
:10174000398848885F846E847D848C849B84AA84D5
:10175000B984C884DF80EE80FD800C811B81AA8162
:10176000B981CE0FD11D0FB6F894DEBF0FBECDBF2D
:08177000ED010895F894FFCF8C
:10177800070305081000000000000000000000003A
:10178800000000000000000050617373776F7264FE
:101798003A000703050810021F0200021F02100882
:1017A800050307002573203A2025640D0A005541DA
:1017B8005254204D4F44452020202020002A00204C
:1017C8002020202020202020202020202020002031
:1017D800202055415254204D6F6465202020200060
:1017E800202564202D200031202D204164642070A4
:1017F800617373776F72640A0D0032202D2044657F
:101808006C6574650A0D0033202D20457869740ACB
:101818000D0054617020796F7572207469746C655D
:1018280020616E642070617373776F726420282062
:101838003C7469746C653E203C70617373776F7299
:10184800643E20293A200053656C656374207468EF
:10185800652070617373776F726420746F2064659C
:101868006C657465203A20002D2D2D2D2D2D2D0D04
:101878000A007C20456E64207C0D0A004E657720A6
:1018880070617373776F726420616464656420218A
:101898000A0D0050617373776F72642064656C651C
:1018A800746520210D0A0045727265757200AAFEE2
:0618B800B800B6A2D0004A
:00000001FF
